{
  "contractName": "StockLedger",
  "abi": [
    {
      "anonymous": false,
      "inputs": [
        {
          "indexed": false,
          "internalType": "uint256",
          "name": "id",
          "type": "uint256"
        },
        {
          "indexed": false,
          "internalType": "string",
          "name": "itemName",
          "type": "string"
        },
        {
          "indexed": false,
          "internalType": "uint256",
          "name": "quantity",
          "type": "uint256"
        },
        {
          "indexed": false,
          "internalType": "string",
          "name": "transactionType",
          "type": "string"
        },
        {
          "indexed": false,
          "internalType": "uint256",
          "name": "timestamp",
          "type": "uint256"
        },
        {
          "indexed": false,
          "internalType": "address",
          "name": "actor",
          "type": "address"
        }
      ],
      "name": "StockTransactionRecorded",
      "type": "event"
    },
    {
      "inputs": [
        {
          "internalType": "uint256",
          "name": "",
          "type": "uint256"
        }
      ],
      "name": "transactions",
      "outputs": [
        {
          "internalType": "string",
          "name": "itemName",
          "type": "string"
        },
        {
          "internalType": "uint256",
          "name": "quantity",
          "type": "uint256"
        },
        {
          "internalType": "string",
          "name": "transactionType",
          "type": "string"
        },
        {
          "internalType": "uint256",
          "name": "timestamp",
          "type": "uint256"
        },
        {
          "internalType": "address",
          "name": "actor",
          "type": "address"
        }
      ],
      "stateMutability": "view",
      "type": "function",
      "constant": true
    },
    {
      "inputs": [
        {
          "internalType": "string",
          "name": "_itemName",
          "type": "string"
        },
        {
          "internalType": "uint256",
          "name": "_quantity",
          "type": "uint256"
        },
        {
          "internalType": "string",
          "name": "_transactionType",
          "type": "string"
        }
      ],
      "name": "recordTransaction",
      "outputs": [],
      "stateMutability": "nonpayable",
      "type": "function"
    },
    {
      "inputs": [
        {
          "internalType": "uint256",
          "name": "_index",
          "type": "uint256"
        }
      ],
      "name": "getTransaction",
      "outputs": [
        {
          "internalType": "string",
          "name": "itemName",
          "type": "string"
        },
        {
          "internalType": "uint256",
          "name": "quantity",
          "type": "uint256"
        },
        {
          "internalType": "string",
          "name": "transactionType",
          "type": "string"
        },
        {
          "internalType": "uint256",
          "name": "timestamp",
          "type": "uint256"
        },
        {
          "internalType": "address",
          "name": "actor",
          "type": "address"
        }
      ],
      "stateMutability": "view",
      "type": "function",
      "constant": true
    },
    {
      "inputs": [],
      "name": "getTotalTransactions",
      "outputs": [
        {
          "internalType": "uint256",
          "name": "",
          "type": "uint256"
        }
      ],
      "stateMutability": "view",
      "type": "function",
      "constant": true
    }
  ],
  "bytecode": "0x608060405234801561001057600080fd5b50610b85806100206000396000f3fe608060405234801561001057600080fd5b506004361061004c5760003560e01c806333ea3dc8146100515780639ace38c214610085578063b5c604ff146100b9578063d5941433146100d7575b600080fd5b61006b6004803603810190610066919061076e565b6100f3565b60405161007c95949392919061082e565b60405180910390f35b61009f600480360381019061009a919061076e565b6102f1565b6040516100b095949392919061082e565b60405180910390f35b6100c1610467565b6040516100ce91906108af565b60405180910390f35b6100f160048036038101906100ec91906106ef565b610473565b005b6060600060606000806000805490508610610143576040517f08c379a000000000000000000000000000000000000000000000000000000000815260040161013a9061088f565b60405180910390fd5b600080878154811061017e577f4e487b7100000000000000000000000000000000000000000000000000000000600052603260045260246000fd5b906000526020600020906005020190508060000181600101548260020183600301548460040160009054906101000a900473ffffffffffffffffffffffffffffffffffffffff168480546101d190610a68565b80601f01602080910402602001604051908101604052809291908181526020018280546101fd90610a68565b801561024a5780601f1061021f5761010080835404028352916020019161024a565b820191906000526020600020905b81548152906001019060200180831161022d57829003601f168201915b5050505050945082805461025d90610a68565b80601f016020809104026020016040519081016040528092919081815260200182805461028990610a68565b80156102d65780601f106102ab576101008083540402835291602001916102d6565b820191906000526020600020905b8154815290600101906020018083116102b957829003601f168201915b50505050509250955095509550955095505091939590929450565b6000818154811061030157600080fd5b906000526020600020906005020160009150905080600001805461032490610a68565b80601f016020809104026020016040519081016040528092919081815260200182805461035090610a68565b801561039d5780601f106103725761010080835404028352916020019161039d565b820191906000526020600020905b81548152906001019060200180831161038057829003601f168201915b5050505050908060010154908060020180546103b890610a68565b80601f01602080910402602001604051908101604052809291908181526020018280546103e490610a68565b80156104315780601f1061040657610100808354040283529160200191610431565b820191906000526020600020905b81548152906001019060200180831161041457829003601f168201915b5050505050908060030154908060040160009054906101000a900473ffffffffffffffffffffffffffffffffffffffff16905085565b60008080549050905090565b60006040518060a001604052808581526020018481526020018381526020014281526020013373ffffffffffffffffffffffffffffffffffffffff168152509050600081908060018154018082558091505060019003906000526020600020906005020160009091909190915060008201518160000190805190602001906104fc9291906105cf565b506020820151816001015560408201518160020190805190602001906105239291906105cf565b506060820151816003015560808201518160040160006101000a81548173ffffffffffffffffffffffffffffffffffffffff021916908373ffffffffffffffffffffffffffffffffffffffff16021790555050507fa8b29efc84e6126baedad8a3fad12e57cc5d4410c43fc7255041dab16695467160016000805490506105aa91906109b6565b85858542336040516105c1969594939291906108ca565b60405180910390a150505050565b8280546105db90610a68565b90600052602060002090601f0160209004810192826105fd5760008555610644565b82601f1061061657805160ff1916838001178555610644565b82800160010185558215610644579182015b82811115610643578251825591602001919060010190610628565b5b5090506106519190610655565b5090565b5b8082111561066e576000816000905550600101610656565b5090565b60006106856106808461096a565b610939565b90508281526020810184848401111561069d57600080fd5b6106a8848285610a26565b509392505050565b600082601f8301126106c157600080fd5b81356106d1848260208601610672565b91505092915050565b6000813590506106e981610b38565b92915050565b60008060006060848603121561070457600080fd5b600084013567ffffffffffffffff81111561071e57600080fd5b61072a868287016106b0565b935050602061073b868287016106da565b925050604084013567ffffffffffffffff81111561075857600080fd5b610764868287016106b0565b9150509250925092565b60006020828403121561078057600080fd5b600061078e848285016106da565b91505092915050565b6107a0816109ea565b82525050565b60006107b18261099a565b6107bb81856109a5565b93506107cb818560208601610a35565b6107d481610b27565b840191505092915050565b60006107ec6019836109a5565b91507f496e76616c6964207472616e73616374696f6e20696e646578000000000000006000830152602082019050919050565b61082881610a1c565b82525050565b600060a082019050818103600083015261084881886107a6565b9050610857602083018761081f565b818103604083015261086981866107a6565b9050610878606083018561081f565b6108856080830184610797565b9695505050505050565b600060208201905081810360008301526108a8816107df565b9050919050565b60006020820190506108c4600083018461081f565b92915050565b600060c0820190506108df600083018961081f565b81810360208301526108f181886107a6565b9050610900604083018761081f565b818103606083015261091281866107a6565b9050610921608083018561081f565b61092e60a0830184610797565b979650505050505050565b6000604051905081810181811067ffffffffffffffff821117156109605761095f610af8565b5b8060405250919050565b600067ffffffffffffffff82111561098557610984610af8565b5b601f19601f8301169050602081019050919050565b600081519050919050565b600082825260208201905092915050565b60006109c182610a1c565b91506109cc83610a1c565b9250828210156109df576109de610a9a565b5b828203905092915050565b60006109f5826109fc565b9050919050565b600073ffffffffffffffffffffffffffffffffffffffff82169050919050565b6000819050919050565b82818337600083830152505050565b60005b83811015610a53578082015181840152602081019050610a38565b83811115610a62576000848401525b50505050565b60006002820490506001821680610a8057607f821691505b60208210811415610a9457610a93610ac9565b5b50919050565b7f4e487b7100000000000000000000000000000000000000000000000000000000600052601160045260246000fd5b7f4e487b7100000000000000000000000000000000000000000000000000000000600052602260045260246000fd5b7f4e487b7100000000000000000000000000000000000000000000000000000000600052604160045260246000fd5b6000601f19601f8301169050919050565b610b4181610a1c565b8114610b4c57600080fd5b5056fea2646970667358221220eae1ed51e9d0ab9a2fa310b8d7d7b39a89b5241f829ab5a3121171b9ce696f2664736f6c63430008000033",
  "immutableReferences": {},
  "source": "// SPDX-License-Identifier: MIT\r\npragma solidity ^0.8.0;\r\n\r\n// Definisikan struktur data untuk setiap transaksi stok\r\nstruct StockTransaction {\r\n    string itemName;      // Nama obat\r\n    uint quantity;        // Kuantitas obat\r\n    string transactionType; // Tipe transaksi (misal: \"Masuk\", \"Keluar\", \"Rusak\")\r\n    uint timestamp;       // Waktu transaksi dicatat (epoch time)\r\n    address actor;        // Alamat yang melakukan transaksi\r\n}\r\n\r\ncontract StockLedger {\r\n    // Array untuk menyimpan semua transaksi stok\r\n    StockTransaction[] public transactions;\r\n\r\n    // Event yang akan dipancarkan setiap kali transaksi baru dicatat\r\n    event StockTransactionRecorded(\r\n        uint id,\r\n        string itemName,\r\n        uint quantity,\r\n        string transactionType,\r\n        uint timestamp,\r\n        address actor\r\n    );\r\n\r\n    // Fungsi untuk mencatat transaksi stok baru\r\n    // Hanya pemilik kontrak yang bisa memanggil fungsi ini (opsional untuk MVP)\r\n    // Untuk MVP, kita abaikan dulu pembatasan ini agar lebih cepat\r\n    function recordTransaction(\r\n        string memory _itemName,\r\n        uint _quantity,\r\n        string memory _transactionType\r\n    ) public {\r\n        // Buat objek StockTransaction baru\r\n        StockTransaction memory newTransaction = StockTransaction({\r\n            itemName: _itemName,\r\n            quantity: _quantity,\r\n            transactionType: _transactionType,\r\n            timestamp: block.timestamp, // Waktu blok saat ini\r\n            actor: msg.sender // Alamat yang memanggil fungsi ini\r\n        });\r\n\r\n        // Tambahkan transaksi ke array\r\n        transactions.push(newTransaction);\r\n\r\n        // Pancarkan event untuk memudahkan pemantauan dari luar blockchain\r\n        emit StockTransactionRecorded(\r\n            transactions.length - 1, // ID transaksi (indeks array)\r\n            _itemName,\r\n            _quantity,\r\n            _transactionType,\r\n            block.timestamp,\r\n            msg.sender\r\n        );\r\n    }\r\n\r\n    // Fungsi untuk mendapatkan detail transaksi berdasarkan indeks (opsional untuk MVP)\r\n    function getTransaction(uint _index) public view returns (\r\n        string memory itemName,\r\n        uint quantity,\r\n        string memory transactionType,\r\n        uint timestamp,\r\n        address actor\r\n    ) {\r\n        require(_index < transactions.length, \"Invalid transaction index\");\r\n        StockTransaction storage t = transactions[_index];\r\n        return (t.itemName, t.quantity, t.transactionType, t.timestamp, t.actor);\r\n    }\r\n\r\n    // Fungsi untuk mendapatkan jumlah total transaksi\r\n    function getTotalTransactions() public view returns (uint) {\r\n        return transactions.length;\r\n    }\r\n}",
  "sourcePath": "C:\\Users\\radit\\Desktop\\PharmaLedgerAI_Capstone\\contracts\\StockLedger.sol",
  "compiler": {
    "name": "solc",
    "version": "0.8.0+commit.c7dfd78e.Emscripten.clang"
  },
  "schemaVersion": "3.4.16",
  "updatedAt": "2025-07-13T17:29:21.783Z",
  "networkType": "ethereum",
  "devdoc": {
    "kind": "dev",
    "methods": {},
    "version": 1
  },
  "userdoc": {
    "kind": "user",
    "methods": {},
    "version": 1
  }
}